:020000040800F2
:1000000000500020210F0008710F00081D02000899
:1000100023020008290200082F0200080000000047
:100020000000000000000000000000003502000891
:10003000710F000800000000750500083904000871
:10004000710F0008710F0008710F0008710F000890
:10005000710F0008710F0008750F0008990F000854
:10006000BD0F0008E10F000805100008710F00081F
:10007000710F0008710F0008710F0008710F000860
:10008000710F0008710F0008710F0008710F000850
:10009000710F0008710F0008710F00082910000887
:1000A000710F0008710F0008710F0008710F000830
:1000B000710F0008710F0008710F0008A1110008EE
:1000C00095110008791300086D13000885130008C6
:1000D000E11300083D1400085114000865140008DD
:1000E000D1100008710F000800000000710F000817
:1000F000710F0008710F0008710F0008710F0008E0
:10010000710F0008710F0008710F0008710F0008CF
:10011000710F0008710F0008710F0008710F0008BF
:10012000710F0008710F0008710F0008710F0008AF
:1001300010B5054C237833B9044B13B10448AFF321
:1001400000800123237010BD040000200000000087
:10015000C014000808B5034B1BB103490348AFF3B3
:10016000008008BD0000000008000020C014000846
:1001700010F8012B11F8013B012A28BF9A42F7D051
:10018000D01A704780B483B000AF03463960FB716A
:1001900097F90730002B0ADB3B68DAB20C4997F974
:1001A00007305201D2B20B4483F800230AE03B68C7
:1001B000DAB20849FB7903F00F03043B5201D2B2D3
:1001C0000B441A7600BF0C37BD4680BC704700BF99
:1001D00000E100E000ED00E080B582B000AF7860A3
:1001E0007B68013BB3F1807F01D301230FE00A4A12
:1001F0007B68013B536007214FF0FF30FFF7C2FFE0
:10020000054B00229A60044B07221A60002318460F
:100210000837BD4680BD00BF10E000E080B400AFED
:10022000FEE780B400AFFEE780B400AFFEE780B425
:1002300000AFFEE71EF0040F0CBFEFF30880EFF3F2
:10024000098000F065B900BF80B500AF0F216FF0E5
:100250000100FFF797FF00BF80BD80B500AF4FF4EE
:10026000FA50FFF7B9FF00BF80BD80B485B000AF82
:10027000F860B9607A60BB68002B01D1032311E0FC
:10028000FB68BA68DA60FB68DA68FB685A60FB688A
:10029000DA68FB689A60FB687A681A61FB6800227A
:1002A0001A60002318461437BD4680BC704780B4DE
:1002B00083B000AF786039607B68DB68002B03D0C7
:1002C0007B681B69002B01D103232CE07B685A68F3
:1002D0007B689B689A4207D17B681A687B681B69B8
:1002E0009A4201D101231EE07B689B683A681A603C
:1002F0007B681B685A1C7B681A607B689B687A68FD
:10030000D26811467A68126992000A44934204D175
:100310007B68DA687B689A6004E07B689B681A1DDA
:100320007B689A60002318460C37BD4680BC704736
:1003300080B483B000AF786039607B68DB68002BE5
:1003400003D07B681B69002B01D1032327E07B6866
:100350005A687B689B689A4201D102231FE07B6840
:100360005B681A683B681A607B681B685A1E7B686A
:100370001A607B685B687A68D26811467A6812698D
:1003800092000A44934204D17B68DA687B685A6021
:1003900004E07B685B681A1D7B685A60002318467E
:1003A0000C37BD4680BC704780B483B000AF786026
:1003B0007B68022B0DD07B68022B0CDC7B68002B4A
:1003C00003D07B68012B02D005E001DF03E002DFF0
:1003D00001E003DF00BF00BF0C37BD4680BC7047A3
:1003E00080B400AF0B4A0C4BC3F890210A4BD3F8F2
:1003F0009031A3F54063084AC2F89431064BD3F814
:100400009431083B044AC2F8983100BFBD4680BC15
:10041000704700BF005000200802002080B400AFE9
:10042000044B1B7883F00103DAB2024B1A7020BF31
:10043000F6E700BF2000002080B500AF094B1B7815
:1004400083F00103DAB2074B1A7000F0E1FA00F012
:100450000DF8054B5B68044A43F08053536000BFBE
:1004600080BD00BF2100002000ED00E080B500AF9E
:10047000244B1B68002B1AD1234BD3F8A03193F8DF
:100480003430002B13D0204BD3F8A031012283F855
:1004900034201D4BD3F8A03119461A48FFF707FF47
:1004A000194BD3F8A031184AC2F8A43127E01749F4
:1004B0001448FFF73DFF144BD3F8A431012283F811
:1004C0003420114BD3F8A031DA7F0F4BD3F8A4318D
:1004D000DB7F9A4213D10C4BD3F8A03193F8343020
:1004E000002B0CD0084BD3F8A03119460548FFF774
:1004F000DEFE054BD3F8A031032283F8342000BF81
:1005000080BD00BF2400002008020020AC030020B2
:1005100080B584B000AF78607B6818331B68023BFD
:100520001B78FB73FB7B022B19D800F0FFF80E4BF6
:1005300093F8A831012B11D10B4BD3F8A0310B4903
:100540001846FFF715FE0346002B07D0FFF78EFF76
:10055000074B5B68064A43F08053536000BF00BFFF
:100560001037BD4680BD00BF08020020D814000827
:1005700000ED00E06C4BD3F8A031EFF309800246A8
:100580001A63694BD3F8A0311A6B043A1A63664BAD
:10059000D3F8A0311B6B22461A60634BD3F8A0310D
:1005A0001A6B043A1A63604BD3F8A0311B6B2A46CE
:1005B0001A605D4BD3F8A0311A6B043A1A635A4B98
:1005C000D3F8A0311B6B32461A60574BD3F8A031D9
:1005D0001A6B043A1A63544BD3F8A0311B6B3A469A
:1005E0001A60514BD3F8A0311A6B043A1A634E4B80
:1005F000D3F8A0311B6B42461A604B4BD3F8A031A5
:100600001A6B043A1A63484BD3F8A0311B6B4A4665
:100610001A60454BD3F8A0311A6B043A1A63424B67
:10062000D3F8A0311B6B52461A603F4BD3F8A03170
:100630001A6B043A1A633C4BD3F8A0311B6B5A4631
:100640001A60394BD3F8A431374AC2F8A031364B7F
:100650000022C3F8A421344BD3F8A0311B6B1B68D4
:100660009B46314BD3F8A0311A6B04321A632E4BE0
:10067000D3F8A0311B6B1B689A462B4BD3F8A031E3
:100680001A6B04321A63284BD3F8A0311B6B1B681A
:100690009946254BD3F8A0311A6B04321A63224BCA
:1006A000D3F8A0311B6B1B6898461F4BD3F8A031C1
:1006B0001A6B04321A631C4BD3F8A0311B6B1B68F6
:1006C0001F46194BD3F8A0311A6B04321A63164B2C
:1006D000D3F8A0311B6B1B681E46134BD3F8A03117
:1006E0001A6B04321A63104BD3F8A0311B6B1B68D2
:1006F0001D460D4BD3F8A0311A6B04321A630A4B16
:10070000D3F8A0311B6B1B681C46074BD3F8A031F4
:100710001A6B04321A63044BD3F8A0311B6B1846D2
:1007200080F30988704700BF0802002080B584B0BC
:1007300000AF00233B600023BB600023FB7300F08D
:1007400057F800BF3B4619462748FFF7F1FD03461F
:10075000022BF7D13BE0FB7B244A52F823307B602D
:10076000FB7B0133214A52F82330BB607B6893F84E
:100770003430002B28D0BB6893F83430002B05D0E0
:100780007B68DA7FBB68DB7F9A4208D279681648BB
:10079000FFF78DFD7B68032283F834201FE07B6820
:1007A000DA7FBB68DB7F9A4208D179680E48FFF791
:1007B0007EFD7B68032283F8342005E07B68DA7FC6
:1007C000BB68DB7F9A4209D8FB7B0133FB73FA7B62
:1007D000064BD3F89C319A42BDD300E000BF00BF66
:1007E0001037BD4680BD00BF240000200802002055
:1007F00080B483B000AF214BD3F89C317B710023D0
:10080000FB7130E00023BB7123E0BB791B4A52F837
:100810002330DA7FBB790133184951F82330DB7F6D
:100820009A4213D9BB79154A52F823303B60BB7901
:100830005A1CBB79114951F82220104941F8232054
:10084000BB7901330D493A6841F82320BB79013364
:10085000BB71BA797979FB79CB1A013B9A42D4DB27
:10086000FB790133FB71FA797B79013B9A42C9DB51
:1008700000BF00BF0C37BD4680BC70470802002097
:1008800080B582B000AF0023FB71184B002283F8C3
:10089000A821FFF7A5FD642215491648FFF7E5FCDE
:1008A0000346002B02D0FB790133FB71FB79002B4F
:1008B00016D1114B114A07CA03C31A700E4BFF22FF
:1008C000DA770D4B0E4A1A620B4B4FF496725A624E
:1008D000094800F057F803461A46FB791344FB71A8
:1008E000FB7918460837BD4680BD00BF08020020CE
:1008F0003800002024000020C8010020E414000873
:100900001D04000880B485B000AF78607B689B6AE6
:100910001A467B681A637B681B6B1A1F7B681A6315
:100920007B681B6B4FF080721A607B681B6B1A1F11
:100930007B681A637B681A6A7B681B6B1A607B682A
:100940001B6B1A1F7B681A637B681B6B6FF00202BC
:100950001A600023FB730BE07B681B6B1A1F7B681C
:100960001A637B681B6B00221A60FB7B0133FB73ED
:10097000FB7B0C2BF0D900BF00BF1437BD4680BCF9
:100980007047000080B584B000AF78600023FB732F
:100990001D4BD3F898217B689A627B689A6A7B68C2
:1009A0005B6AD21A7B68DA627B68DB6A174A934219
:1009B00001D2022324E07B68DB6A083B124AC2F8BA
:1009C00098317868FFF79EFF0F4BD3F89C310E49A2
:1009D0007A6841F823200C4BD3F89C3101330A4A42
:1009E000C2F89C317B689B7F012B04D17B6801227C
:1009F00083F8342003E07B68002283F83420FB7BFB
:100A000018461037BD4680BD080200208007002030
:100A100080B582B000AF0023FB7131E0FB791E4A44
:100A200052F8233093F83430002B26D1FB791A4A40
:100A300052F8233093F83830002B1ED1FB79164A38
:100A400052F82330DA6B013ADA63FB79124A52F832
:100A50002330DB6B002B10D1FB790F4A52F8233087
:100A6000012283F83820FB790B4A52F82330022206
:100A700083F834200220FFF797FCFB790133FB71E8
:100A8000FA79054BD3F89C319A42C7D300BF00BF17
:100A90000837BD4680BD00BF0802002080B500AF0A
:100AA000134B012283F8A821114B124AC3F8A0214D
:100AB000104800F0A9F8FFF7D0FB0D4BD3F8A03198
:100AC0001B6B184680F30988EFF3148040F0020096
:100AD00080F31488EFF3148343F0010383F3148845
:100AE000034BD3F8A0311B6A984700BF80BD00BFFD
:100AF000080200201D04000880B584B000AF7860B3
:100B000039600023FB737B689B68002B14D17B68E2
:100B10003A689A607B6893F82E30002B26D17B6868
:100B20009B68DA7F7B6883F830207B689B687A68F3
:100B300092F82F20DA7719E07B689B683A689A422E
:100B400002D10423FB7311E07B68DB68002B0BD11F
:100B50007B683A68DA607B68DB68002283F83420BF
:100B60000120FFF721FC01E00323FB73FB7B184608
:100B70001037BD4680BD000080B582B000AF786000
:100B80007B689B68002B39D07B689A681D4BD3F833
:100B9000A0319A4232D17B6893F82E30002B05D1D8
:100BA0007B689B687A6892F83020DA777B68DB682C
:100BB000002B03D17B6800229A601FE07B68DA6813
:100BC0007B689A607B680022DA607B689B680222FF
:100BD00083F834207B6893F82E30002B0BD17B6890
:100BE0009B68DA7F7B6883F830207B689B687A6833
:100BF00092F82F20DA770020FFF7D6FB00BF0837E6
:100C0000BD4680BD0802002080B582B000AF78608C
:100C10007B68022283F834200020FFF7C5FB00BF69
:100C20000837BD4680BD80B582B000AF78607B6874
:100C3000002283F834200120FFF7B6FB00BF0837FD
:100C4000BD4680BDB0B582B000AF0023FB71FFF799
:100C5000FBFAFFF715FE03461A46FB791343FB71B7
:100C60004C4B4FF480625A624A4B4B4A1A62494BD2
:100C70000A22DA77474B01229A77464B474A92E895
:100C8000030018600433198002330A0C1A70444BB5
:100C90004FF480625A62424B424A1A62404B082229
:100CA000DA773F4B00229A773D4B3F4A92E80300A8
:100CB00018600433198002330A0C1A703B4B4FF44E
:100CC00080625A62394B3A4A1A62384B0122DA770B
:100CD000364B00229A77354B364A92E8030018606B
:100CE0000433198002330A0C1A70334B4FF48062BC
:100CF0005A62314B314A1A622F4B0322DA772E4B5C
:100D000000229A772C4B2E4A92E803001860043395
:100D1000198002330A0C1A701E48FFF733FE03468F
:100D20001A46FB791343FB711D48FFF72BFE034660
:100D30001A46FB791343FB711C48FFF723FE034659
:100D40001A46FB791343FB711B48FFF71BFE034652
:100D50001A46FB791343FB711A4B03225A60194B55
:100D6000194A1A60174B012283F82E20154B0222D4
:100D700083F82F20154A164B14461D460FCD0FC47D
:100D80002B681A46228002341B0C2370FFF786FE64
:100D9000FEE700BFB4030020D50D0008F0140008E2
:100DA000F40300202D0E0008F8140008340400207D
:100DB000790E00080015000874040020CD0E00080C
:100DC00008150008B804002000000020C804002016
:100DD0001015000880B582B000AF0023FB710F4BE7
:100DE0001B7883F00103DAB20C4B1A70FB790133E4
:100DF000FB71FB79642B07D109490A48FFF77CFE98
:100E00000948FFF701FFEAE7FB79C82BE7D1002388
:100E1000FB710448FFF7B0FEE1E700BFB404002017
:100E2000B4030020B8040020F403002080B582B091
:100E300000AF0023FB710D4B1B7883F00103DAB286
:100E40000A4B1A70FB790133FB71FB79642B03D1D8
:100E50000748FFF7D9FEEEE7FB79C82BEBD100235B
:100E6000FB710448FFF7DFFEE5E700BFB504002093
:100E700034040020F403002080B582B000AF0023CA
:100E8000FB710E4B1B7883F00103DAB20B4B1A7027
:100E9000FB790133FB71FB79642B06D10848FFF71E
:100EA0006BFE0848FFF7B0FEEBE7FB79C82BE8D1F3
:100EB0000023FB710448FFF7B6FEE2E7B60400200A
:100EC000B8040020740400203404002080B582B0EF
:100ED00000AF0023FB710F4B1B7883F00103DAB2E4
:100EE0000C4B1A70FB790133FB71FB79032B04D196
:100EF00009490A48FFF700FEEDE7FB79C82BEAD164
:100F00000023FB710548FFF737FE0348FFF78BFE10
:100F1000E1E700BFB704002074040020B8040020FB
:100F20000D488546AFF300800C480D490D4A00235B
:100F300002E0D458C4500433C4188C42F9D30A4A8E
:100F40000A4C002301E013600432A242FBD300F0FC
:100F500093FAFFF777FEFEE7005000200000002024
:100F6000040000202C150008040000207C0500204F
:100F7000FEE7000080B500AF054B5B69044A43F013
:100F800001035361034B1B68984700BF80BD00BF3E
:100F900000040140EC04002080B500AF054B5B6904
:100FA000044A43F002035361034B5B68984700BF58
:100FB00080BD00BF00040140EC04002080B500AFFC
:100FC000054B5B69044A43F004035361034B9B6880
:100FD000984700BF80BD00BF00040140EC04002022
:100FE00080B500AF054B5B69044A43F008035361C9
:100FF000034BDB68984700BF80BD00BF0004014081
:10100000EC04002080B500AF054B5B69044A43F057
:1010100010035361034B1B69984700BF80BD00BF9D
:1010200000040140EC04002080B500AF264B5B6952
:1010300003F02003002B08D0234B5B69224A43F0C6
:1010400020035361214B5B6998471F4B5B6903F099
:101050004003002B08D01C4B5B691B4A43F0400344
:1010600053611A4B9B699847174B5B6903F08003E8
:10107000002B08D0144B5B69134A43F08003536183
:10108000124BDB699847104B5B6903F48073002BAC
:1010900008D00D4B5B690C4A43F4807353610B4BD2
:1010A0001B6A9847084B5B6903F40073002B08D058
:1010B000054B5B69044A43F400735361034B5B6A5D
:1010C000984700BF80BD00BF00040140EC04002031
:1010D00080B500AF2D4B5B6903F48063002B08D013
:1010E0002A4B5B69294A43F480635361284B9B6A0E
:1010F0009847264B5B6903F40063002B08D0234B11
:101100005B69224A43F400635361214BDB6A9847D1
:101110001E4B5B6903F48053002B08D01B4B5B69AB
:101120001A4A43F480535361194B1B6B9847174B72
:101130005B6903F40053002B08D0144B5B69134A1E
:1011400043F400535361124B5B6B98470F4B5B6941
:1011500003F48043002B08D00C4B5B690B4A43F42B
:10116000804353610A4B9B6B9847084B5B6903F4C0
:101170000043002B08D0054B5B69044A43F400434D
:101180005361034BDB6B984700BF80BD00040140F7
:10119000EC04002080B400AF00BFBD4680BC7047A7
:1011A00080B586B000AF00237B60374B7B617B69E5
:1011B0005B6803F400733B617B695B6803F48063E5
:1011C000FB607B695B6903F01003BB603B69002B2C
:1011D0000AD0BB68002B07D07B691A687B691A604C
:1011E0000021786900F052F87B695B6903F0020323
:1011F000BB603B69002B12D0BB68002B0FD07B6912
:101200009B6903F00103002B09D17B695B697B605B
:101210007B699B697B600221786900F037F87B6904
:101220005B6903F08003BB603B69002B0FD0FB6858
:10123000002B0CD0BB68002B09D07B699B6903F0A5
:101240000103002B03D10321786900F01FF87B69AB
:101250005B6903F04003BB603B69002B0FD0FB6868
:10126000002B0CD0BB68002B09D07B699B6903F075
:101270000103002B03D10421786900F007F800BFB7
:101280001837BD4680BD00BF0054004080B584B013
:1012900000AF78600B46FB707B68324A934214BF04
:1012A00001230023DBB2FB73FB78042B56D801A289
:1012B00052F823F0CF120008C9120008F3120008F8
:1012C0000B1300082F1300087B689B6946E07B68BE
:1012D0009B6903F00403002B3BD0FA7B22491346A1
:1012E000DB0013449B000B4420331B68002098470D
:1012F0002FE0FA7B1C491346DB0013449B000B4490
:1013000020331B680220984728E07B689B6903F024
:101310000403002B1FD0FA7B13491346DB00134450
:101320009B000B4420331B680320984713E07B6825
:101330009B6903F00403002B0FD1FA7B0A49134683
:10134000DB0013449B000B4420331B6804209847A8
:1013500003E000BF02E000BF00E000BF00BF1037A5
:10136000BD4680BD005400402805002080B400AF79
:1013700000BFBD4680BC704780B400AF00BFBD4613
:1013800080BC704780B582B000AF134B9B685B0890
:1013900003F00103DAB23B7962F300033B710E4BB9
:1013A0009B6803F00103DAB23B7962F341033B71BE
:1013B000094B9B681B0903F00103DAB23B7962F326
:1013C00082033B71054B1B685B693879984700BF06
:1013D0000837BD4680BD00BF0030014070050020C9
:1013E00080B582B000AF134B9B685B0803F001032C
:1013F000DAB23B7962F300033B710E4B9B6803F05A
:101400000103DAB23B7962F341033B71094B9B68FC
:101410001B0903F00103DAB23B7962F382033B71EB
:10142000054B5B685B693879984700BF0837BD4654
:1014300080BD00BF003800407005002080B500AFBF
:10144000024B1B681B69984700BF80BD78050020D0
:1014500080B500AF024B1B681B69984700BF80BD79
:101460007805002080B500AF024B1B681B699847C8
:1014700000BF80BD7805002070B500260C4D0D4CD6
:10148000641BA410A64209D100F01AF800260A4DE8
:101490000A4C641BA410A64205D170BD55F8043B4C
:1014A00098470136EEE755F8043B98470136F2E7D6
:1014B0002415000824150008241500082815000824
:1014C000F8B500BFF8BC08BC9E467047F8B500BF31
:0814D000F8BC08BC9E46704701
:1014D80069646C657461736B0000000069646C6515
:1014E8005461736B000000005461736B5F3100003E
:1014F8005461736B5F3200005461736B5F3300009B
:101508005461736B5F3400004D75746578205368BF
:0C151800617265642054315F543400009F
:041524005501000865
:041528003101000885
:04152C0001020300B5
:0400000508000F21BF
:00000001FF
